{
	"data": {
		"bytecode": {
			"linkReferences": {},
			"object": "608060405234801561001057600080fd5b50610276806100206000396000f3fe608060405234801561001057600080fd5b506004361061004c5760003560e01c80630c55699c14610051578063a56dfe4a14610085578063c5d7802e146100b9578063f8a8fd6d146100ed575b600080fd5b61005961010b565b604051808273ffffffffffffffffffffffffffffffffffffffff16815260200191505060405180910390f35b61008d610113565b604051808273ffffffffffffffffffffffffffffffffffffffff16815260200191505060405180910390f35b6100c1610122565b604051808273ffffffffffffffffffffffffffffffffffffffff16815260200191505060405180910390f35b6100f561012a565b6040518082815260200191505060405180910390f35b600033905090565b600061011d610122565b905090565b600033905090565b600080700100000000000000000000000000000010905060006040808360170b901b60170b901d9050600060808360170b901d905061016761021e565b604051806060016040528070010000000000000000000000000000001060170b60170b815260200170010000000000000000000000000000001060170b60170b815260200170010000000000000000000000000000001060170b60170b81525090506000805b60038110156102125760808382600381106101e457fe5b602002015160170b901d935060018460070b14156102055781806001019250505b80806001019150506101cd565b50809550505050505090565b604051806060016040528060039060208202803683378082019150509050509056fea2646970667358221220c6c37899e52baf0e38afbf0acc74506b87cf7d0f74ca4dffed5a8a66d040545864736f6c63430007010033",
			"opcodes": "PUSH1 0x80 PUSH1 0x40 MSTORE CALLVALUE DUP1 ISZERO PUSH2 0x10 JUMPI PUSH1 0x0 DUP1 REVERT JUMPDEST POP PUSH2 0x276 DUP1 PUSH2 0x20 PUSH1 0x0 CODECOPY PUSH1 0x0 RETURN INVALID PUSH1 0x80 PUSH1 0x40 MSTORE CALLVALUE DUP1 ISZERO PUSH2 0x10 JUMPI PUSH1 0x0 DUP1 REVERT JUMPDEST POP PUSH1 0x4 CALLDATASIZE LT PUSH2 0x4C JUMPI PUSH1 0x0 CALLDATALOAD PUSH1 0xE0 SHR DUP1 PUSH4 0xC55699C EQ PUSH2 0x51 JUMPI DUP1 PUSH4 0xA56DFE4A EQ PUSH2 0x85 JUMPI DUP1 PUSH4 0xC5D7802E EQ PUSH2 0xB9 JUMPI DUP1 PUSH4 0xF8A8FD6D EQ PUSH2 0xED JUMPI JUMPDEST PUSH1 0x0 DUP1 REVERT JUMPDEST PUSH2 0x59 PUSH2 0x10B JUMP JUMPDEST PUSH1 0x40 MLOAD DUP1 DUP3 PUSH20 0xFFFFFFFFFFFFFFFFFFFFFFFFFFFFFFFFFFFFFFFF AND DUP2 MSTORE PUSH1 0x20 ADD SWAP2 POP POP PUSH1 0x40 MLOAD DUP1 SWAP2 SUB SWAP1 RETURN JUMPDEST PUSH2 0x8D PUSH2 0x113 JUMP JUMPDEST PUSH1 0x40 MLOAD DUP1 DUP3 PUSH20 0xFFFFFFFFFFFFFFFFFFFFFFFFFFFFFFFFFFFFFFFF AND DUP2 MSTORE PUSH1 0x20 ADD SWAP2 POP POP PUSH1 0x40 MLOAD DUP1 SWAP2 SUB SWAP1 RETURN JUMPDEST PUSH2 0xC1 PUSH2 0x122 JUMP JUMPDEST PUSH1 0x40 MLOAD DUP1 DUP3 PUSH20 0xFFFFFFFFFFFFFFFFFFFFFFFFFFFFFFFFFFFFFFFF AND DUP2 MSTORE PUSH1 0x20 ADD SWAP2 POP POP PUSH1 0x40 MLOAD DUP1 SWAP2 SUB SWAP1 RETURN JUMPDEST PUSH2 0xF5 PUSH2 0x12A JUMP JUMPDEST PUSH1 0x40 MLOAD DUP1 DUP3 DUP2 MSTORE PUSH1 0x20 ADD SWAP2 POP POP PUSH1 0x40 MLOAD DUP1 SWAP2 SUB SWAP1 RETURN JUMPDEST PUSH1 0x0 CALLER SWAP1 POP SWAP1 JUMP JUMPDEST PUSH1 0x0 PUSH2 0x11D PUSH2 0x122 JUMP JUMPDEST SWAP1 POP SWAP1 JUMP JUMPDEST PUSH1 0x0 CALLER SWAP1 POP SWAP1 JUMP JUMPDEST PUSH1 0x0 DUP1 PUSH17 0x100000000000000000000000000000010 SWAP1 POP PUSH1 0x0 PUSH1 0x40 DUP1 DUP4 PUSH1 0x17 SIGNEXTEND SWAP1 SHL PUSH1 0x17 SIGNEXTEND SWAP1 SAR SWAP1 POP PUSH1 0x0 PUSH1 0x80 DUP4 PUSH1 0x17 SIGNEXTEND SWAP1 SAR SWAP1 POP PUSH2 0x167 PUSH2 0x21E JUMP JUMPDEST PUSH1 0x40 MLOAD DUP1 PUSH1 0x60 ADD PUSH1 0x40 MSTORE DUP1 PUSH17 0x100000000000000000000000000000010 PUSH1 0x17 SIGNEXTEND PUSH1 0x17 SIGNEXTEND DUP2 MSTORE PUSH1 0x20 ADD PUSH17 0x100000000000000000000000000000010 PUSH1 0x17 SIGNEXTEND PUSH1 0x17 SIGNEXTEND DUP2 MSTORE PUSH1 0x20 ADD PUSH17 0x100000000000000000000000000000010 PUSH1 0x17 SIGNEXTEND PUSH1 0x17 SIGNEXTEND DUP2 MSTORE POP SWAP1 POP PUSH1 0x0 DUP1 JUMPDEST PUSH1 0x3 DUP2 LT ISZERO PUSH2 0x212 JUMPI PUSH1 0x80 DUP4 DUP3 PUSH1 0x3 DUP2 LT PUSH2 0x1E4 JUMPI INVALID JUMPDEST PUSH1 0x20 MUL ADD MLOAD PUSH1 0x17 SIGNEXTEND SWAP1 SAR SWAP4 POP PUSH1 0x1 DUP5 PUSH1 0x7 SIGNEXTEND EQ ISZERO PUSH2 0x205 JUMPI DUP2 DUP1 PUSH1 0x1 ADD SWAP3 POP POP JUMPDEST DUP1 DUP1 PUSH1 0x1 ADD SWAP2 POP POP PUSH2 0x1CD JUMP JUMPDEST POP DUP1 SWAP6 POP POP POP POP POP POP SWAP1 JUMP JUMPDEST PUSH1 0x40 MLOAD DUP1 PUSH1 0x60 ADD PUSH1 0x40 MSTORE DUP1 PUSH1 0x3 SWAP1 PUSH1 0x20 DUP3 MUL DUP1 CALLDATASIZE DUP4 CALLDATACOPY DUP1 DUP3 ADD SWAP2 POP POP SWAP1 POP POP SWAP1 JUMP INVALID LOG2 PUSH5 0x6970667358 0x22 SLT KECCAK256 0xC6 0xC3 PUSH25 0x99E52BAF0E38AFBF0ACC74506B87CF7D0F74CA4DFFED5A8A66 0xD0 BLOCKHASH SLOAD PC PUSH5 0x736F6C6343 STOP SMOD ADD STOP CALLER "
		},
		"gasEstimates": {
			"creation": {
				"codeDepositCost": "126000",
				"executionCost": "171",
				"totalCost": "126171"
			},
			"external": {
				"test()": "infinite",
				"x()": "196",
				"y()": "253",
				"z()": "240"
			}
		},
		"methodIdentifiers": {
			"test()": "f8a8fd6d",
			"x()": "0c55699c",
			"y()": "a56dfe4a",
			"z()": "c5d7802e"
		}
	},
	"abi": [
		{
			"inputs": [],
			"name": "test",
			"outputs": [
				{
					"internalType": "int256",
					"name": "",
					"type": "int256"
				}
			],
			"stateMutability": "view",
			"type": "function"
		},
		{
			"inputs": [],
			"name": "x",
			"outputs": [
				{
					"internalType": "address",
					"name": "",
					"type": "address"
				}
			],
			"stateMutability": "view",
			"type": "function"
		},
		{
			"inputs": [],
			"name": "y",
			"outputs": [
				{
					"internalType": "address",
					"name": "",
					"type": "address"
				}
			],
			"stateMutability": "view",
			"type": "function"
		},
		{
			"inputs": [],
			"name": "z",
			"outputs": [
				{
					"internalType": "address",
					"name": "",
					"type": "address"
				}
			],
			"stateMutability": "view",
			"type": "function"
		}
	]
}